:020000040800F2
:1000000048760020ED0100089B2500085F1E0008CF
:100010009925000849030008D12F000800000000BE
:10002000000000000000000000000000012900089E
:100030000B040008000000009D25000803290008AB
:10004000070200080702000807020008070200086C
:10005000070200080702000807020008070200085C
:100060000702000807020008070200084D03000805
:10007000070200080702000807020008070200083C
:10008000070200080000000007020008070200083D
:10009000070200080702000807020008070200081C
:1000A000070200080702000807020008070200080C
:1000B00007020008070200080702000807020008FC
:1000C00007020008070200080702000807020008EC
:1000D00007020008C92F00080702000807020008ED
:1000E0000702000825280008070200080702000888
:1000F00007020008070200080702000800000000CD
:1001000000000000070200080000000007020008CD
:1001100007020008000000000702000807020008AC
:10012000070200080702000807020008070200088B
:10013000070200080000000000000000070200089D
:10014000070200080702000800000000000000008D
:10015000000000000000000000000000000000009F
:10016000000000000000000000000000070200087E
:10017000070200080000000000000000000000006E
:10018000000000000702000800000000000000005E
:10019000000000000000000000000000000000005F
:1001A000000000000000000007020008070200082D
:1001B000070200080702000807020008000000000C
:1001C000000000000702000800000000000000001E
:1001D0000702000807020008DFF80CD000F0A2F8C0
:1001E00000480047593500084876002006488047F7
:1001F00006480047FEE7FEE7FEE7FEE7FEE7FEE70C
:10020000FEE7FEE7FEE7FEE7A9290008D90100089E
:100210002DE9F05F0546002092469B46884606463B
:10022000814640241BE0284641464746224600F0CE
:1002300069F853465A46C01A914110D311461846E0
:10024000224600F050F82D1A67EB01084F4622466F
:100250000120002100F047F817EB00094E41201E55
:10026000A4F10104DFDC484631462A464346BDE896
:10027000F09F40EA01039B0703D009E008C9121F61
:1002800008C0042AFAD203E011F8013B00F8013B50
:10029000521EF9D27047D2B201E000F8012B491E7C
:1002A000FBD270470022F6E710B513460A46044613
:1002B0001946FFF7F0FF204610BD30B50B4601464A
:1002C00000202022012409E021FA02F59D4205D3F5
:1002D00003FA02F5491B04FA02F52844151EA2F19F
:1002E0000102F1DC30BD202A04DB203A00FA02F1E1
:1002F000002070479140C2F1200320FA03F3194314
:1003000090407047202A04DB203A21FA02F00021B5
:10031000704721FA02F3D040C2F120029140084315
:1003200019467047064C074D06E0E06840F00103AF
:1003300094E8070098471034AC42F6D3FFF750FF1B
:10034000504C0008704C0008FEE70000014800F027
:10035000D1B800BFAC00002010B5104C04F18002F1
:10036000A4F57E712034C2640268436C8A4223F093
:1003700003013CBF40F60004C4F20204214481643E
:100380006FF0070151FA82F11422B1FBF2F1012260
:1003900001F01F0102FA01F1016510BD00080240E1
:1003A000037907490122013B01F1400C01EB830174
:1003B00003F01F039A40C0E9151CC265704700BFD7
:1003C0000009024010B5D0E913CE0124CCF804E0B6
:1003D000D0F854C0BCF1000F1CBFD0E916CECCF849
:1003E00004E0D0E910CE0EF01F0E04FA0EF4CCF8A3
:1003F00004400468636080681028084608BF1046FF
:10040000A06008BF0A46E26010BD7047EFF310809D
:1004100072B6FEE790F82510022923D101680A6818
:1004200022F00E020A60826C136823F4807313605A
:1004300001230A6822F001020A60D0E9101202F0DA
:100440001F0203FA02F24A60D0E913124A60416DBA
:1004500031B10A6822F480720A60D0E916124A604B
:10046000002102E00421C1630121002280F8242040
:10047000012280F825200846704790F825100229AF
:100480002ED101680A6822F00E020A600A6822F082
:1004900001020A60816C0A6822F480720A60D0E965
:1004A000101202F01F03012202FA03F34B60D0E99D
:1004B00013134B60416D31B10B6823F480730B60F3
:1004C000D0E916134B60002180F8241080F8252015
:1004D000826B6AB180B590470021BDE8804007E09B
:1004E0000421C163002180F82410012180F8251027
:1004F00008467047B0B5D0E910C4DCF800100268B7
:1005000004F01F0E136813F0040F1EBF042404FA36
:100510000EF414EA010519D19C0723D5022404FA2C
:100520000EF414EA01051DD0116811F0200F06D158
:10053000116821F00A011160012180F825100021C5
:10054000CCF8044080F82410C16A23E0116811F04F
:10055000200F02BF116821F004011160CCF80440A3
:10056000016B17E01B0719D5082303FA0EF3194096
:1005700008BFB0BD116821F00E011160012101FA20
:100580000EF2CCF804200022C16380F8242080F809
:100590002510416B11B1BDE8B0400847B0BD000067
:1005A000F8B50446002848D002202B49142304F152
:1005B000180784F82500206801F108029042274AB4
:1005C00038BFA1F5806138BF02F580620244B2FBFA
:1005D000F3F29200C4E9101247F6F072016821EAC2
:1005E000020CD4E90223D4E9041EE0CF42EA0C0253
:1005F0001A43114341EA0E01294331433943016053
:100600002046FFF7A9FEA068B0F5804F06BF002086
:1006100060606068A16CC2B201380A600328D4E946
:1006200013124A600BD82046FFF7BAFE606D002116
:100630000160D4E91601416005E001200AE00020D4
:10064000C4E91500E06500200121E06384F824007E
:1006500084F8251001B0F0BD00040240F8FBFDBF96
:1006600010B5044690F82400012820D0012084F819
:10067000240094F82500012816D1022084F82500D2
:100680000020E063D4F800C0DCF8000020F0010096
:10069000CCF800002046FFF795FE2068226B016829
:1006A0003AB141F00E010AE0002084F82400022053
:1006B0001AE021F004010160016841F00A010160C3
:1006C000A16C0A6812F4803F1EBF0A6842F480726F
:1006D0000A60616D19B10A6842F480720A600168AB
:1006E00041F0010101600020C0B210BDB0B5044668
:1006F00000F0E0F805468B48611C406818BF0444D0
:1007000000F0D8F8401BA042FAD3B0BD2DE9FC4F51
:100710005C4A06274FF0000A4FF001094FF003082A
:100720000026904200F138424FEAB22308BF052765
:10073000052B38BF4FEAB227002200970D6835FA23
:1007400006F408BFBDE8FC8F09FA06F415EA040BAD
:1007500000F092804D68122D15D809FA05F313F0B8
:10076000061F10D0876808FA02F327EA0303CF6850
:1007700097403B438360C5F300134768B34027EAC3
:10078000040423434360C4688F6808FA02F36FEAE5
:10079000030E9C43974045F010033C43122BC4606A
:1007A00012D13C4C0AF01C030F2707FA03F504EAA8
:1007B00056070744D7F820C00C692CEA050504FA4F
:1007C00003F32B433B624D68076805F0030315F004
:1007D000805F03FA02F307EA0E0743EA07030360A8
:1007E0004AD02B4B284C0AF00C051F461B68A44628
:1007F00043F001033B603B6803F00103019326F0E3
:1008000003032344244C019FA6461F590F24AC40E8
:10081000A743009C04FA05F52F4343F80E70DCF85B
:1008200000304D6843EA0B0715F4803F08BF23EA08
:100830000B0715F4003FCCF80070DCF8043043EAF5
:100840000B0708BF23EA0B0715F4801FCCF80470D0
:10085000DCF8083043EA0B0708BF23EA0B070B4B11
:1008600015F4001FCCF808701C461B6843EA0B0700
:1008700008BF23EA0B0727600AF1040A0232013697
:100880005CE700BF00140048000401400C04014074
:1008900060100240FCFFFF7F08FCFFFF006908407A
:1008A00018BF012070471823002A08BF2823C15011
:1008B000704700001B488068704700BF19484168B6
:1008C000826811448160704780B5032000F088F889
:1008D000002000F007F808B1012080BD00F024F8E6
:1008E000002080BD70B50F4E04467068B0B14FF463
:1008F0007A71B1FBF0F06C490968B1FBF0F001F0DE
:1009000025F801250F2C0AD848B94FF0FF302146B1
:100910000022002500F042F8346000E0012528465E
:1009200070BD00BF0000002082B00B48816841F01C
:1009300001018160816801F0010101910199016863
:1009400041F080510160006800F0805000900098F4
:1009500002B000F0ADB800BF5810024000280CDB18
:1009600000F01F010122400902FA01F1034A42F896
:100970002010BFF34F8FBFF36F8F704780E100E00F
:10098000002808DB00F01F010122400902FA01F1F2
:10099000014A42F82010704700E100E010B5164B04
:1009A0001B68C3F3022E0EF1040CAEF103048EF0AB
:1009B0000703BCF1070F4FF0010C38BF0024042BD4
:1009C00028BF04230CFA03F3013B19400CFA04F38B
:1009D000013BA1401A401143BDE8104002F0FABAB1
:1009E00005494FF6FF030A681A4060F30A220348DC
:1009F00010430860704700BF0CED00E00000FA05EE
:100A000020B3BC49B0F5007F0A6845D1D1F8800019
:100A100040F48070C1F8800002F4C060B0F5806FCF
:100A20003ED10868012262F34A20322208601E4843
:100A3000006850431D4AB0FBF2F0C0434A6918B148
:100A4000013012F48062F9D1486920E0A9480168B8
:100A5000D0F8802001F4C06122F48072B1F5806F7B
:100A6000C0F880201CD10168012262F34A213222A1
:100A700001600D49096851430C4AB1FBF2F1C943C9
:100A8000426919B1013112F48062F9D1406910F460
:100A9000806F05D0032004E0022060F34A220A6040
:100AA0000020C0B2704700BF7400002040420F0019
:100AB0000248016841F480410160704708700040BD
:100AC0002DE9FC4104468078894E000701D40020BE
:100AD00060E0F06C10F0805F0BD1F06C4FF001081B
:100AE00040F08050F064F06C00F08050019001986C
:100AF00001E04FF000087F4F386840F480703860A4
:100B0000FFF7D8FE0546386810F4807F06D1FFF75E
:100B1000D1FE401B0228F6D9032034E0D6F8840029
:100B200010F4407026D0216C884211D0D6F8840091
:100B3000D6F8841041F4803120F44070C6F8841057
:100B4000D6F8841021F48031C6F88410C6F88400E9
:100B5000C0070FD0FFF7AEFE054641F28837D6F842
:100B6000840010F0020F05D1FFF7A4FE401BB8422D
:100B7000F5D9D1E7D6F88400216C20F44070084301
:100B8000C6F884000020B8F1000F1EBFF16C21F000
:100B90008051F164216811F0010F05D0F26F636894
:100BA00022F003021A43F2678A0705D5F26FA368A1
:100BB00022F00C021A43F2674A0705D5F26FE36888
:100BC00022F030021A43F2670A0705D5F26F236953
:100BD00022F0C0021A43F2678A0605D5F26F6369F4
:100BE00022F440621A43F2674A0605D5F26FA36900
:100BF00022F440521A43F2670A0605D5F26FE36900
:100C000022F440421A43F267CA0505D5F26F236AFF
:100C100022F440321A43F2678A0505D5F26F636AFF
:100C200022F440221A43F2674A050DD5F26FA36AF7
:100C300022F44012B3F5801F42EA0302F26702BFBA
:100C4000326842F4801232600A050DD5F26FE36A11
:100C500022F44002B3F5800F42EA0302F26702BFBA
:100C6000326842F480123260CA040DD5F26F236BF1
:100C700022F04072B3F1807F42EA0302F26702BFC2
:100C8000326842F4801232608A040DD5F26F636BD1
:100C900022F04062B3F1006F42EA0302F26702BF42
:100CA000326842F4801232604A040DD5F26FA36BB1
:100CB00022F04062B3F1006F42EA0302F26702BF22
:100CC000326842F48012326009040DD5F16FE26B94
:100CD00021F04051B2F1805F41EA0201F16702BFA9
:100CE000316841F480313160C0B202B0BDE8F081BA
:100CF0000C100240007000402DE9F0478A46814602
:100D0000002854D0754C4FF48050215801F00F0149
:100D100051450AD2215821F00F0141EA0A01215020
:100D2000205800F00F00504541D1D9F8000010F0D4
:100D3000010F02D14FF000086BE0D9F8041003292D
:100D400030D1216811F0007F31D0E168E268E368BA
:100D5000E7680226C7F3416701F0030106EB470786
:100D60002646894C032904BF43F20064C0F26E1486
:100D7000C2F30311C3F306220131B4FBF1F1514375
:100D8000574AB1FBF7F1914224D9B168344611F0CA
:100D9000F00F17D0800702D5D9F8080090B14FF0B6
:100DA00000081AE02068022905D1800305D401203B
:100DB000C0B2BDE8F0874005F9D500F0B3F8484966
:100DC0008842ECD9A06808214FF0800861F3071031
:100DD000A06002E04FF000083446A068D9F8041083
:100DE00020F003000843A060FFF764FD064641F2CF
:100DF0008837A068D9F8041000F00C00B0EB810F20
:100E000005D0FFF757FD801BB842F2D93CE0D9F876
:100E10000000810706D4B8F1800F17D1A16821F036
:100E2000F00112E0410742BFA16841F4E061A16016
:100E3000010704D5A168072262F30D21A160A16812
:100E4000D9F8082021F0F0011143A1604FF4805738
:100E5000E15901F00F0151451BD9E059254620F019
:100E60000F0040EA0A00E051FFF724FD064641F278
:100E700088342846E85900F00F00504506D0FFF7A7
:100E800019FD801BA042F4D9032091E7D9F8000096
:100E90002C46410706D5A168D9F80C2021F4E06161
:100EA0001143A160000707D5A068D9F8101020F4FD
:100EB000605040EAC100A06000F034F8A168094A1F
:100EC000C1F30311515C01F01F01C84013490860D0
:100ED00005480068BDE8F047FFF704BD0010024078
:100EE00000B4C404C0390008000000200B482549A4
:100EF0000B4A00680968C1F30221515C01F01F012F
:100F0000C840704705481F49054A00680968C1F391
:100F1000C221515C01F01F01C840704774000020DD
:100F2000D03900081749184A086800F00C00042856
:100F3000104608BF7047086800F00C031348082BE0
:100F40001ED00B6803F00C030C2B1CBF0020704755
:100F50004B6803F00303032B08BF02464868C0F345
:100F600003100130B2FBF0F04A68C2F30622496870
:100F700050430222C1F3416102EB4101B0FBF1F0A9
:100F8000704700BF081002400024F40000366E01D4
:100F90002DE9F8430446002800F0D3812078C94E9B
:100FA000C94FC007B1461FD1207880074FD42078A1
:100FB000000740F1A6806169D7F89000002900F091
:100FC0008E8040F00100C7F89000FFF773FC0546E3
:100FD000D7F8900010F0020F40F09380FFF76AFC02
:100FE000401B0228F4D9DEE07968B86801F00C01F2
:100FF000082953D0032281F00C0122EA00000843A3
:10100000B0FA80F0400949D16668B6F5803F0AD051
:10101000D9F80000C846B6F5A02F40F0E28040F4B1
:101020008020C8F80000D9F800004E4640F4803017
:10103000C9F80000FFF73EFC0546306810F4003F99
:10104000B2D1FFF737FC401B6428F6D9ABE07868D3
:10105000B96800F00C0004282AD001F0030180F0E8
:101060000C0081F002010843B0FA80F040091FD162
:10107000E1683068002900F0988040F480703060AA
:10108000FFF718FC0546306810F4806F40F0A1802F
:10109000FFF710FC401B0228F5D984E0306810F4FB
:1010A000003F3FF481AF606800287FF47DAF48E1E6
:1010B000306810F4806F03D0E068002800F04181B0
:1010C0003868216920F0FE4040EA01603860D64867
:1010D0000068FFF707FC002840F0338167E720F045
:1010E0000100C7F89000FFF7E5FB0546D7F8900030
:1010F00010F0020F05D0FFF7DDFB401B0228F5D9E9
:1011000051E02078400740F1AF80786D10F0805FAB
:101110000BD1786D4FF0010840F080507865786D04
:1011200000F080500090009801E04FF00008BF4EA2
:10113000484659F8060010F4807F14D159F806008B
:1011400040F4807049F80600FFF7B4FB05464846B6
:1011500059F8060010F4807F05D1FFF7ABFB401B68
:101160000228F4D91FE0A668012E07D0D7F88C001A
:10117000052E55D140F00400C7F88C00D7F88C003C
:1011800040F00100C7F88C00FFF794FB054641F2E0
:101190008836D7F88C0010F0020F5ED1FFF78AFB7B
:1011A000401BB042F5D90320CCE020F480703060C1
:1011B000FFF780FB05464846D9F8000010F4806F21
:1011C0003FF4F5AEFFF776FB411B03200229F2D96D
:1011D000B8E03868216920F0FE4040EA01603860DC
:1011E000E5E620F48030C8F80000D8F8000020F4CC
:1011F0008020C8F80000FFF75DFB002E054646463C
:101200007FF41BAFD9F800004E4610F4003F3FF4C6
:10121000CBAEFFF74FFB411B03206429F2D991E0CD
:1012200020F00100C7F88C00D7F88C0020F00400F3
:10123000C7F88C00FFF73EFB0546002EA7D141F210
:101240008836D7F88C0010F0020F06D0FFF732FB7B
:10125000411B0320B142F4D974E0B8F1000F1EBF66
:10126000786D20F080507865207880062ED5A169B1
:10127000D7F8940091B140F00100C7F89400FFF74F
:1012800019FB0546D7F8940010F0020F1ED1FFF7A6
:1012900011FB411B03200229F4D953E020F0010087
:1012A000C7F89400FFF706FB0546D7F8940010F046
:1012B000020F0BD0FFF7FEFA411B03200229F4D9DD
:1012C00040E000BF0010024004100240E069002826
:1012D00000F0A780796801F00C010C2936D10128B3
:1012E0002FD0B868216A00F003028A4229D1616ACE
:1012F0006FF00F0202EB011100F0F0028A4220D1E0
:10130000A16A00F4FE42B2EB012F1AD1E16A00F0AB
:101310007842B2EBC16F14D1216B474A02EA015106
:1013200000F4C002A1F500118A420AD1616B4FF0AE
:101330007E4200F0C06001F0FE0102EB01618842D4
:101340006FD00120C0B201B0BDE8F083D9F8001021
:1013500002284A4621F08071C9F800100FD1FFF72A
:10136000A9FA05464846D9F8000010F0007F1ED0C3
:10137000FFF7A0FA411B03200229F3D9E2E7B8687E
:101380002B4920F00300B860B8680840B860FFF748
:1013900091FA04464846D9F8000010F0007F40D08A
:1013A000FFF788FA011B03200229F3D9CAE704F1E9
:1013B0002006B8686FF00F054ECE05EB02121D4DEA
:1013C00028400843216B10431B4A40EA032002EAED
:1013D00001514FF07E42A1F500110843616B40EAD4
:1013E000C66001F0FE0102EB01610843B860D9F864
:1013F000000040F08070C9F80000B86840F08070CC
:10140000B860FFF757FA04464846D9F8000010F0D4
:10141000007F06D1FFF74EFA011B03200229F3D902
:1014200090E700208EE700BF000000200060FEFF74
:10143000FFFFEEFE0C809F010000E0FF7047000000
:101440000248002181730121417170471000002082
:10145000F8B50E4D0E4E04462F6817F0010F07D059
:101460000120A8604FF4003030602046FFF7E8FF0D
:10147000B80707D50220A8604FF40030306020463E
:10148000FFF7DCFF012084F82500F8BD5428004058
:101490001404014010B51848002A0068C0F3042362
:1014A0004FEA104E00F03F0C4B7081F803E081F8DA
:1014B00002C0C0F342340C701BD10024020AA4EB1A
:1014C000131302F00F0203F00A031A444A70C0F328
:1014D00003530EF00F0200F00F0003EB830302EB47
:1014E0004302CA70CCF3031202EB820200EB42000B
:1014F0008870002010BD00BF0428004010B5494886
:10150000002A83684B6003696FF3DF338B600068E8
:10151000C0F3062300F07F0C4B70C0F3054E81F83A
:1015200000E081F802C0C0F38054CC701CD1020AE4
:10153000C3F30313040C00F00F0002F00F0203EBDF
:10154000830302EB43024A70CEF3031304F00F024D
:1015500003EB830302EB43020A70CCF3031202EBAA
:10156000820200EB42008870002010BDB0B5044636
:1015700068B394F8250028B9002084F82400204698
:1015800000F03AF80220E14D84F82500CA20E86016
:101590005320E860204601F061F9A8B92868154990
:1015A0000840286060682169A269084329681043DF
:1015B00008432860D4E9020141EA004045F8080CDC
:1015C000204601F073F920B1FF21E960B0BD012090
:1015D000B0BD28686169D4E9072320F06040184352
:1015E000104308432860FF20E860012084F82500AC
:1015F0000020B0BDBFFF8FFB00680A49884218BFBA
:10160000704780B508480022016841F4004101603C
:1016100029200021FFF7C2F92920BDE88040FFF70B
:10162000AFB900BF00280040901002402DE9F047FC
:101630000D4690F8241004460220012900F0A080F5
:1016400084F825000120B14F002A84F8240038686E
:1016500000F0400011D0002807BF0021E970E878B1
:1016600081056B782A78AE7895F820001B0243EA52
:101670000242324342EA01061AE00028DFF8909263
:1016800007BF4FF0000885F80380E8784FEA8058DC
:101690002878C84706466878C847000240EA0646E8
:1016A000A878C847304340EA080695F82000C847A4
:1016B000D5F80480D5E90519EA69CA23FB605323EC
:1016C0003243FB60304E42EA006040EA010A696A38
:1016D0003868B1F5807F16D120F488503860012039
:1016E00078644FF400307061FFF7E4F8054657F86E
:1016F0000C0C10F0010F1FD1FFF7DCF8401BB0F508
:101700007A7FF4D915E020F408503860022078641C
:101710004FF400307061FFF7CDF8054657F80C0C18
:1017200010F0020F0FD1FFF7C5F8401BB0F57A7F1C
:10173000F4D9032103201CE0C7F828A007F12C00EE
:101740004FF4885105E007F134004FF40851C7F811
:1017500030A049EA08020260386808430121386075
:10176000306840F400303060B06840F40030B06061
:101770000020FF22FA60002284F8242084F825103B
:10178000C0B2BDE8F08700BF000401402DE9F84376
:101790000D4690F8241004460220012946D084F812
:1017A00025000120002A84F8240006D06878E97812
:1017B000AE78000240EA014815E06F78DFF85091FA
:1017C00017F0100F1EBF07F0EF0000F10A076F704F
:1017D000E878C8470646F8B2C847000240EA06481B
:1017E000A878C84706462F78124DCA202860532093
:1017F0002860204601F032F810B1FF21296012E084
:101800000D4948EA0600084040EA473045F8200CF8
:10181000204601F04BF8FF210028296003D1012068
:1018200084F825000020002184F8241001B0BDE8D0
:10183000F08300BF242800403FFFFF002DE9F04760
:101840000D4690F82410044616460220012908BFD0
:10185000BDE8F08784F8250001202C4F84F824008F
:10186000CA20F8605320F860204600F0F7FF10B15E
:10187000FF21F96045E03868002E00F040000FD0ED
:10188000002807BF4FF0000985F80390E8784FEA79
:1018900080596A782978A878120242EA014614E051
:1018A0000028DFF86CA007BF4FF0000985F803900F
:1018B000E8784FEA80592878D04780466878D04742
:1018C000000240EA0846A878D0473043114940EA70
:1018D0000900084047F8180C386820F48020386068
:1018E000D5E903013A68084310433860204600F008
:1018F000DDFFFF210028F96003D1012084F82500D5
:101900000020002184F82410BDE8F087182800404A
:10191000312800087F7F7F00B0B50B4D286820F08C
:1019200020002860FEF7C6FF0446286810F0200F4C
:1019300007D1FEF7BFFF001BB0F57A7FF5D9032072
:1019400000E00020C0B2B0BD0C280040411E0020C5
:10195000B0EB116F1CBF01207047044AF0235160A7
:1019600003490B70072190601160704710E000E0A0
:1019700023ED00E090F88010012901D1022112E04E
:101980002421C0F8841002681368116821F0010155
:1019900023F000531160002141661360202280F87B
:1019A0008010C0F88420C8B2704710B50446D0F843
:1019B0008800202806D1012071B16AB194F8800016
:1019C000012801D1022010BD0120E06684F88000CA
:1019D000204601F067FA00B110BDE06E01281CBF7F
:1019E000012010BD206810210162016841F0100142
:1019F0000160002010BD00000549884218BF7047F3
:101A0000044800210222017082710172704700BFF8
:101A100034010020100000207047B0B5044690F853
:101A20008000012801D102201BE02420C4F884009A
:101A3000012084F8800020680568026822F0010215
:101A40000260826822F0606211438160204600F0EB
:101A5000B3FF206820210560002084F88000C4F8CE
:101A60008410C0B2B0BDB0B5044690F88000012823
:101A700001D102201BE02420C4F88400012084F856
:101A8000800020680568026822F001020260826816
:101A900022F0604211438160204600F08DFF2068F3
:101AA00020210560002084F88000C4F88410C0B2B2
:101AB000B0BD70477047704770B50168044640F686
:101AC0000F00CA690B46D1F800E053F808CF024274
:101AD00049D09B480EEA00059A4800EA0C000543ED
:101AE0004BD0D50718BF1EF4807507D001250D62B5
:101AF000D4F88C5045F00105C4F88C500CF0010569
:101B0000960708D53DB102260E62D4F88C6046F0E7
:101B10000406C4F88C60560708D53DB104250D6253
:101B2000D4F88C5045F00205C4F88C5015070BD53D
:101B30000EF02005284307D008200862D4F88C0056
:101B400040F00800C4F88C00100551D51EF08060EC
:101B50004ED04FF400602546086255F88C0F40F0D7
:101B60002000286046E0900607D50EF020000CF01B
:101B70008053184301D0216FACE00EEA0200E36EFF
:101B800010F0100F27D0012B25D110200862886893
:101B900010F0400F62D1B4F85E00B4F85C20B4F8E5
:101BA0005E30002B00F0A680101A020400F0A28024
:101BB0000A68664B22F490720A608A681A408A604A
:101BC0002022C4F8882000222267E2660A6822F0F8
:101BD00010020A606FE0D30273D51CF4800370D04A
:101BE0004FF4801008622046BDE87040FFF762BFE6
:101BF00004F18C05286800287CD090060CD50EF0E6
:101C000020000CF08051084306D0216F21B12046FE
:101C10008847206800F108032868196800F0280048
:101C200001F0400108435FD0204600F0FDFF20682E
:101C3000816811F0400F52D0816821F0400181602D
:101C4000E06F00284BD040498163FEF716FC002866
:101C500050D0E06F816BBDE870400847E06F0368CB
:101C60005D68AAB2002A45D0B4F85CC0624541D292
:101C7000A4F85E501A6812F0200F18D10A6822F4F6
:101C800080720A608A6822F001028A608A6822F003
:101C900040028A602022C4F888200022E2660A6896
:101CA00022F010020A60FEF7B5FBB4F85CC0B4F88D
:101CB0005E00ACEB000081B22046BDE87040FFF74B
:101CC0009BBE130617D50EF080030CF400063343B9
:101CD00011D0616F71B12046BDE8704008472046C1
:101CE000BDE87040FFF7E7BE2046FFF7E4FE0020A6
:101CF000C4F88C0070BD400609D4100215D51EF042
:101D0000804012D02046BDE87040FFF7D2BE086880
:101D100020F040000860002060672020C4F88400A4
:101D20002046BDE8704000F099B8D001E2D5BEF180
:101D3000FF3FDFDC2046BDE87040FFF76DBE00BF0F
:101D400020010004010000104D2B0008FEFFFFEFF2
:101D500010B50446A8B1D4F8840028B9002084F84E
:101D60008000204600F026F82420C4F88400206873
:101D7000016821F001010160204600F07DFF01288B
:101D800001D1012010BDA06A10B1204600F03EFE36
:101D90002068416821F490414160816821F02A0166
:101DA0008160016841F0010101602046BDE81040FA
:101DB00000F096BE70B586B0044601A81421FEF767
:101DC00071FA2068214988423ED165480026416960
:101DD00041F480414161416901F4804100910099E1
:101DE000016841F00101016001A9006800F00100F3
:101DF00000900098022002904FF4C06001900720EC
:101E0000CDE9036605904FF09040FEF77FFC104D42
:101E10001049182080222E62C5E900102846C5E925
:101E20000266C5E90426C5E90666FEF7B9FB08B1F6
:101E3000FEF7ECFA252000210022E567AC62FEF7F0
:101E4000ADFD2520FEF79CFD06B070BD00380140B9
:101E5000AC00002008000240704770477047FEE762
:101E6000FEB54FF6FF70032101900020059002900F
:101E7000CDE903010B4801A9FEF748FC06B080BD7F
:101E8000FEB54FF6FF7001210190002005900291F0
:101E90000321CDE90301034801A9FEF737FC06B091
:101EA00080BD00BF00080048F8B58D4D04460020F5
:101EB00000212E6800F022F900F05EF94FF4963709
:101EC00003E0204600F032F9013F002FF9D1B0B213
:101ED0002860F8BDF0B587B000262148214C0127C5
:101EE00002AD0696016841F004010160016801F04D
:101EF000040101910199016841F00101016001684B
:101F000001F0010101910199016841F002010160B4
:101F10002946006800F002000190019803974FF4F1
:101F2000487002902046CDE90466FEF7EFFB4FF4BF
:101F300080700397294602904FF09040CDE90466E7
:101F4000FEF7E4FBFFF79CFF0748215841F480713E
:101F50002150A06940F40870A06107B0F0BD00BF37
:101F60004C1002400004004818FCFFFF203AD3B296
:101F70005B0053FA82F2024B03EB021200F01EB830
:101F8000D83900082DE9F843054655480C4640F27B
:101F90003F160027D0F80080814607E0E25D3AB1A5
:101FA000B1B22846FFF7E2FF0137103E132FF5D9F3
:101FB0001FFA88F0C9F80000BDE8F8832DE9F84F52
:101FC00014468846814600F099F8DFF82CA1DFF826
:101FD00058B100270125182F08BFBDE8F88F00F081
:101FE000CBF800260CE034F8170005FA06F10142A0
:101FF00014BFBBF80000BAF8000000F097F80136F3
:10200000102EF0D109F1010941465FFA89F000F084
:1020100075F80137DFE700BF70B5314C2568FFF771
:1020200059FF002000F016F8094E48F230213080A8
:102030003088884202D100F0B3FA01E000F026FBBC
:10204000002000F007F83080A8B2206070BD00BF0B
:10205000AA000020B0B5214CD4F8101441F400714E
:10206000C4F81014D4F8101441F48071C4F810149A
:10207000D4F8001441F02001C4F800141849086095
:10208000D4F8100440F02000C4F8100400BF00BFD2
:1020900000BFD4F8000440F02000C4F80004D4F8D5
:1020A000000440F48070C4F80004FFF7D9FE2069F2
:1020B00040F48070206100BF00BF00BFD4F8F85723
:1020C000206840F480702060FFF7DAFED4F8000446
:1020D00040F40070C4F80004A8B2B0BD1800004875
:1020E0001408004881B0ADF802000348BDF80210A2
:1020F000018001B0704700BF7000002010B50C4691
:102100000146202000F060F821202146BDE8104063
:1021100000F05AB881B0ADF802000348BDF80210D3
:10212000018001B0704700BFA80000203E490A6945
:1021300042F400720A610A6842F480720A600A6816
:1021400042F020020A60C1F8FC03086940F0200058
:10215000086100BF00BF00BF086840F020000860B1
:10216000086840F48070086000BF00BF00BF0868C6
:1021700040F40070086070472B48016941F4007119
:102180000161016941F480710161016841F0200140
:1021900001602221C0F8FC13016941F020010161B6
:1021A00000BF00BF00BF016841F02001016001686D
:1021B00041F48071016000BF00BF00BF016841F4BD
:1021C00000710160704700BF174A136943F4007340
:1021D0001361136943F480731361136843F02003A0
:1021E0001360C2F8FC03106940F02000106100BFCA
:1021F00000BF00BF106840F020001060106840F47D
:1022000080701060C2F8FC13106940F0200010616B
:1022100000BF00BF00BF106840F0200010601068D1
:1022200040F4807010607047180400482DE9F047B2
:102230000646C2F1F0008A46002190464FF00009A0
:1022400000EBD070C0F34700FFF758FFFFF794FF93
:10225000CAF5A070440827E0002503E00020FFF73E
:1022600065FF0135A8B28442F8D809FB0AF70025BA
:102270000CE0E819400080B2315C40F00100305CB5
:1022800041EA002080B2FFF751FF0135A8B2504566
:10229000EFD3002503E00020FFF748FF0135A8B287
:1022A0008442F8D809F101091FFA89F04045D3D3D7
:1022B000244801210170BDE8F08700BF2DE9F843F3
:1022C0000646C1F1F000894600219046002700EB48
:1022D000D070C0F34700FFF711FFFFF74DFFC8F5BF
:1022E000A070440825E0002503E00020FFF71EFF52
:1022F0000135A8B28442F8D800250DE005FB09702D
:10230000400080B2315C40F00100305C41EA0020C6
:1023100080B2FFF70BFF0135A8B24045EED3002590
:1023200003E00020FFF702FF0135A8B28442F8D88D
:102330000137B8B24845D6D3024801210170BDE843
:10234000F88300BF10000020E0B50E4800220168AD
:1023500041F004010160016801F00401019101995B
:10236000016841F0010101600021006800F00100F6
:10237000009000980B20FEF711FB0B20BDE88C406D
:10238000FEF7FEBA481002402DE9F04F87B04FF03B
:102390000008354801224FF47F474FF0010ACDF87D
:1023A0001880016841F004010160016801F0040136
:1023B00001910199016841F020010160016801F07B
:1023C000200101910199016841F00101016001685A
:1023D00001F0010101910199016841F002010160E0
:1023E000016801F0020101910199016841F00801C1
:1023F00001604FF47F41006800F0080001900198EF
:102400001A4800F5806683463046FEF74CFA0BF515
:102410000065042100224FF004092846FEF743FA24
:10242000CDE9027A02AF124C3046CDE90488394634
:10243000A0474FF090403946CDE902A8CDF810A052
:10244000A0470720CDF80C80394602905846CDF8B9
:1024500010A0A04728463946CDE9029ACDE9048864
:10246000A04707B0BDE8F08F4C10024000040048C0
:102470000D07000810B590B00BA81421FDF712FF4E
:102480000024684628210A94FDF70CFFE7482649F6
:102490007F22FF234FF0804CC0E9001400F10801B7
:1024A0001CC1C0E90544C0E907C4FFF75FF808B1E3
:1024B000FDF7ACFF0A200BA900228DF82E0041F693
:1024C0001760ADF82C00D9480C94CDE90E44FFF705
:1024D000B5F908B1FDF79AFF14480AA900220024B3
:1024E0000A90D248FFF752F908B1FDF78FFF142088
:1024F000694600228DF8020041F61760ADF8000031
:102500004FF000400194CDE90504012007948DF8B7
:1025100020004FF480700990C448FFF787F808B195
:10252000FDF774FF10B010BD00280040010405172E
:1025300010B5174C17494FF4165000220C23C4E96C
:10254000001004F118001421C4E90222C4E9042394
:10255000FDF7A8FE2046FFF7FBFB08B1FDF756FF8D
:102560000B480021FFF77FFA08B1FDF74FFF08483D
:102570000021FFF752FA08B1FDF748FF0448FFF7C2
:10258000F9F9002814BFBDE8104010BDFDF73EBFAB
:102590003401002000380140FEE7FEE770470000EC
:1025A00010B59E4C00200121A04701200021A0472A
:1025B000102041F29071A04760204FF41C51A047B9
:1025C00061200121A04746200221A047132048F2A4
:1025D0001001A0472C48EE3081B21220A047022003
:1025E0004FF4A061A047032041F23001A047302002
:1025F00040F20331A047312040F20331A04732209E
:1026000040F20331A04733204FF44071A0473420FB
:102610000321A047352040F20331A0473620142182
:10262000A047372040F20331A047382040F2033161
:10263000A047392040F20331A0473A204FF44071BF
:10264000A0473B200321A0473C2040F20331A04794
:102650003D204FF4A051A04792204FF40071A047B5
:10266000932040F20331A047902040F60D01A0478F
:10267000032041F21801A047072040F273112246BF
:10268000BDE81040104700BF1080FFFFB0B5634D9C
:10269000E32043F20801A847E7201221A847EF20D2
:1026A00041F23121A84701200021A84702204FF420
:1026B000E061A847032041F23001A847042000212F
:1026C000A847082040F20721A84709200021A84771
:1026D0000A200021A8470C200021A8470D20002136
:1026E000A8470F200021A84710200021A84711204B
:1026F0000721A84712200021A84713200021A8473E
:10270000474CC820A047102041F29061A8471120F3
:1027100040F22721A8473220A04712201D21A847B8
:102720003220A04713204FF40061A847292014212C
:10273000A8472B200B21A8473220A04720200021AA
:10274000A84721200021A84730200721A847312091
:1027500040F20771A84732200621A847352040F2F1
:102760000471A847362041F60471A8473720042198
:10277000A84738200021A847392040F20671A84711
:102780003C2040F20171A8473D200F21A84750206E
:102790000021A8475120EF21A84752200021A84737
:1027A000532040F23F11A84760204FF41C51A84726
:1027B00061200121A8476A200021A847802000212C
:1027C000A84781200021A84782200021A847832014
:1027D0000021A84784200021A84785200021A84780
:1027E00090201021A84792200021A8479320032180
:1027F000A84795204FF48871A84797200021A84743
:1028000098200021A847032041F21801A84707207B
:1028100040F273112A46BDE8B0401047C9210008B4
:10282000ED0600080148FEF713BE00BF0C010020B2
:10283000C143CAB2F62A4FF00A0298BF6FF00901ED
:1028400001440A31C9B2B1FBF2F101EB8102A0EB04
:10285000420040EA0110C0B270470000F8B5124FC4
:102860000446386810F0400F19D13868002640F04F
:1028700080003860FEF71EF805460BE010F04000BF
:102880000ED1FEF717F8401BB0F57A7F02D9032668
:1028900084F82560F1B238680329EFD100E0002602
:1028A000F0B201B0F0BD00BF0C280040B0B5134D30
:1028B000044655F80C0C20F0800045F80C0C2868F4
:1028C00010F0200F08D1FFF727F800280EBF0020D6
:1028D000032084F825000FE0286820F020002860FD
:1028E000FFF71AF800281ABF032084F825000020FB
:1028F000296841F020012960C0B2B0BD182800400D
:102900007047FDF7DBBF000070B5A4B016AC142112
:10291000142504F10800FDF7C5FC11A81421FDF7EA
:10292000C1FC68464421FDF7BDFC4FF40070FEF782
:1029300067F80920032616904FF480301790012085
:102940001B9002201D90CDE91E66CDE92050CDE9F7
:1029500022002046FEF71CFB18B1EFF3108072B680
:10296000FEE70F20129600240221119011A8CDE954
:1029700013441594FEF7C0F918B1EFF3108072B646
:10298000FEE74FF4007001941090064800906846EE
:10299000FEF796F818B1EFF3108072B6FEE724B098
:1029A00070BD00BF010008000248016841F47001D9
:1029B0000160704788ED00E0416ED9B180B50268D2
:1029C000DFF840C0DFF840E09168C1F342619268EF
:1029D0001CF801301EF80110520FC900B1FBF3F1D1
:1029E0001CF802301EF80220D200B2FBF3F2BDE860
:1029F000804001E001220121A0F86810A0F86A20BF
:102A0000704700BFC84B0008C04B0008816A11F036
:102A1000010F08D002685368D0F82CC023F40033AB
:102A200043EA0C0353608A0708D502685368D0F85C
:102A300030C023F4803343EA0C0353604A0708D5BF
:102A400002685368D0F834C023F4802343EA0C03AF
:102A500053600A0708D502685368D0F838C023F4D9
:102A6000004343EA0C035360CA0608D50268936822
:102A7000D0F83CC023F4805343EA0C0393608A06E9
:102A800008D502689368D0F840C023F4005343EAA5
:102A90000C03936080B54A0615D5D0F800E0DEF847
:102AA00004C0436C2CF48012B3F5801F42EA030289
:102AB000CEF8042007D1DEF80420836C22F4C00293
:102AC0001A43CEF804200906BDE8804058BF70477D
:102AD00001684A68C06C22F40022104348607047C5
:102AE000BCB504460020C4F88C00FDF7E3FE0546A3
:102AF0002068016811F0080F0AD013484FF4001144
:102B000000222B460090204600F00CFA70B9206895
:102B1000006810F0040F0BD00B484FF48001002226
:102B20002B460090204600F0FDF908B1032008E094
:102B30002020C4F88400C4F88800002084F88000B5
:102B4000E066C0B202B0B0BDFFFFFF01806A0021A5
:102B5000A0F85E10A0F85610FEF7ADBFB0B5846ABD
:102B6000D4F88420D4F88850206850F8081F212A0F
:102B70000AD111F0800107D00020A4F856002046A9
:102B800000F06CF8206808300068222D08D110F0A1
:102B9000400005D00020A4F85E00204600F044F874
:102BA000D4F88C0040F01000C4F88C002046BDE83A
:102BB000B040FEF780BF0168806A096811F0200FFD
:102BC0001CD10021A0F85E1001680A6822F480720E
:102BD0000A608A6822F001028A608A6822F0400254
:102BE0008A602022C0F88820024652F86C3F012BF0
:102BF00002BF0B6823F010030B6001E000F16C02D0
:102C00001168012918BFFFF727B9B0F85C10FEF76B
:102C1000F3BE806AC16E012918BFFFF71EB9B0F874
:102C20005C104908FEF7E8BE01680B4B0A6822F405
:102C300090720A608A681A408A60C26E012A02BFD6
:102C40000A6822F010020A602021C0F888100021D2
:102C50000167C166704700BFFEFFFFEF01680A68A9
:102C600022F0C0020A608A6822F400028A602021F1
:102C7000C0F884107047000070B50446036880688F
:102C80007C4D7E4ED4E904120843E16910431A6872
:102C900008432A40784D10431860AB425868E268F8
:102CA00020F4405040EA02005860A0691CBF226A2C
:102CB00010439A6832401043724A9860D86AD4F838
:102CC00024C0934220F00F0040EA0C00D8626C4808
:102CD00017D06D4A934216D06C4A934215D0AB423E
:102CE00015D06B4A934221D16A4B6B4A1B6802F59F
:102CF000806283F0020303F0030343EA8303DA40B4
:102D000017E0022204E0042202E0062200E00A2288
:102D1000604E366826FA02F25F4E82F0020202F03E
:102D2000030242EA820226FA02F200E01022AB42DB
:102D300020D002F01F02B1F5004F0DD10121082A69
:102D400000F28F80DFE802F00526318D298D8D8D10
:102D50002F00FEF7CBF822E00121082A00F2818043
:102D6000DFE802F00536417F397F7F7F3F00FEF7C5
:102D7000BDF832E002F01F020121082A00F2718042
:102D8000DFE802F0056F4B6F426F6F6F4900FEF78F
:102D9000ADF83BE0FEF7B6F801E0FEF7C3F888B304
:102DA000D4F824C001E04FF400403C4931F81C1035
:102DB000B0FBF1F061684A0802EB4000B0FBF1F0B3
:102DC0004FF6F07101404BD0C0F34200084317E0CA
:102DD000FEF798F801E0FEF7A5F898B1D4F824C002
:102DE00001E04FF400402D4931F81C10B0FBF1F028
:102DF000616800EB5100B0FBF1F080B210282FD3D6
:102E00002168C86000212CE0FEF78CF80028F9D07A
:102E1000D4F824C001E04FF400402049656831F83F
:102E20001C2005EB45060121B0FBF2F3B34218D399
:102E30002E03B34215D800210023FDF7E9F909025A
:102E40002A46002341EA1061000210EB550041F1CF
:102E50000001FDF7DDF9124AA0F540719142CFD98A
:102E600001214FF001120020A266C4E91C000846AF
:102E700070BD00BFF369FFCF00800040FFF4FF1179
:102E80000024F4000044004000480040004C004092
:102E9000003801408810024002010200A84B0008DF
:102EA000FFFC0F00B0B51346002405460A46C0F8E3
:102EB0008C40A0F85C3081652220C5F88800E86F5E
:102EC000C8B1DFF854C01549DFF854E000F12C0711
:102ED00087E80250846329682431FDF7C1FB50B1B3
:102EE00010200124C5F88C00002085F880002020E7
:102EF000C5F884000EE085F880402868016841F438
:102F000080710160816841F001018160816841F058
:102F1000400181602046B0BD132C0008B72B00088B
:102F20005D2B00082DE9F843DDF820900F4601687D
:102F300098461646044609F10105C8693840C01B89
:102F4000B0FA80F04009B04225D1002DF5D0FDF750
:102F5000B1FC2168B9F1000F0A6821D0A0EB08008C
:102F600048451DD85007E8D5C86910F4006FE4D073
:102F70004FF400600862086820F4D0700860886828
:102F800020F0010088602020C4F88400C4F8880084
:102F900004F18C0010E00020C0B201B0BDE8F08365
:102FA00022F4D0700860886820F00100886020203A
:102FB000C4F8840004F1880020210160002084F816
:102FC00080000320E8E700004F48FEF775BD00BF12
:102FD000FEE7000010B5074C00F00F03044AB0F103
:102FE000FF3F2344C8BF83180801187010BD00BFFD
:102FF00000E400E014ED00E01CB520484FF4616CE3
:1030000090F84C2090F84D3090F84E1090F805E074
:1030100012FB0CF2C3EB031302EB83020A441849C0
:103020000B784C78897813FB0CF3C4EB041403EB96
:1030300084030B441349934238BF0B44BEF1000F85
:1030400007D0223010A11F2202B0BDE81040FDF7CA
:1030500010B9991A3C232230B1FBF3F2C2EB0212F1
:10306000A1EB82020092B1FBFCF202FB1C11B1FB4E
:10307000F3F30DA100F0DAFA1CBD00BF1000002030
:103080008000002080510100202020202020546951
:103090006D654F75742120202020202020202020C5
:1030A0002020202020200000486F75723A253264CD
:1030B0004D696E3A2532645365633A2532642020A7
:1030C0002020200010B5D04CE179A07969B1022808
:1030D0000BD1CF490020002201E088540132B2F523
:1030E000E14FFAD10220E0710AE0012818BF10BDBB
:1030F0000548C7494FF4E142FEF757FC0120207212
:103100000020207010BD00BF34010020B0B5094C74
:10311000094D042101222046A847A4F580604FF6FE
:10312000FF710122A8472046042100222B46BDE85A
:10313000B0401847000C0048A7080008B0B5F34C91
:10314000F34DA08A2968081A3328C0F08F802868B8
:10315000A08200F08DF82074617C607420EA010286
:1031600021EA0000511EA274E074032968D8DFE848
:1031700001F0020A141F01206072617859B3A1792D
:103180008843A0715BE002206072607870B3E079E0
:10319000012121EA0000E07151E0032060726078B3
:1031A000012810D1E078012121EA0000E07046E01A
:1031B00001200021E073002060712868E08208206F
:1031C00000F0A8F93BE0A07B012121EA0000A073F8
:1031D00000F006FA33E0607B03210130C0B2B0FB9F
:1031E000F1F101EB4101401A607328E0607B022895
:1031F0000ED0012818D010BBA07A18210130C0B21F
:10320000B0FBF1F101EB4101A0EBC100A07216E0AF
:10321000207B3C210130C0B2B0FBF1F1C1EB0111C8
:10322000A0EB810020730AE0E07A3C210130C0B2BB
:10323000B0FBF1F1C1EB0111A0EB8100E072E07C89
:10324000C0B2042818BFB0BDE07B68B1E08A29682D
:10325000081AB0F57A7F07D90420012160726078DE
:1032600021EA00006070B0BD0020E073B0BD00BF77
:10327000B0B50F4C012101252046FDF70FFBA8B189
:10328000204602210225FDF709FB78B120460421E2
:10329000FDF704FB48B14FF090400121FDF7FEFA25
:1032A000B0FA80F040098000B0BD0325E8B2B0BD9F
:1032B00000040048FEB5544D6878A978814205D1D4
:1032C000E978012809D12A798A4206D00020002411
:1032D000FEF7EAFD2C706878E97800294B4C4FF036
:1032E000000218BF01212971A87005F14C01204688
:1032F000FEF704F905F11E0120460022FEF7CAF888
:10330000687878B12878002859D141480078002899
:1033100055D0E87800284DD03D4878217822FEF736
:1033200085FF4CE005F122044B491E222046FCF7A4
:10333000A0FF4A4F00202146B84795F8211095F884
:103340002000EB7F474E01F5FA6245490090204688
:10335000B04718202146B84795F84E0095F84C2004
:1033600095F84D30404900902046B0473020214626
:10337000B8473E483E49027843788078009020461E
:10338000B04748202146B847287BAA7AEB7A39A172
:1033900000902046B04760202146B847687B3DA199
:1033A000421C2046B047782021463A4603B0BDE88B
:1033B000F0401047164878217822FEF77FFF6879A1
:1033C000A97B084302D0FFF717FE05E005F12200B4
:1033D00010A11722FCF74DFF05F12204D820214649
:1033E000FEF7D0FDE879697AEA78AB79CDE900019A
:1033F0000EA1204600F01AF900202146FEF7C2FD7A
:10340000BDE8FE40FFF782BE100000200C01002046
:10341000C4010020202020506C7A20736574206144
:103420006C61726D2020202020200000482F563A29
:10343000256420523A256420636C656E3A25642029
:10344000623A2564202020202020202020202020D7
:103450002020202000000000304C0008851F0008BC
:10346000D04B00082D3600080F4C000880000020CB
:10347000F04B0008202020205365743A25643A253B
:10348000643A256420202020202020202020202095
:103490000000000020202020437572736F723A25CF
:1034A0006420202020202020202020202000000038
:1034B00010B55C4C607978B11548218B0268511ABF
:1034C000B1F5FA7F04D3006800212083082001E0D1
:1034D0000820012100F01EF8A07B68B10120012125
:1034E00000F018F8292000210022FDF757FA2920C2
:1034F000BDE81040FDF744BA2920FDF72FFA01205E
:103500000021BDE8104000F005B800BF1000002009
:1035100008000020F8B50F4D0E4607460421012291
:1035200005F580642046FDF7BEF9781E4FF48071E2
:10353000012E01FA00F014BF0122002281B22846B8
:10354000FDF7B1F9204604210022BDE8F840FDF75F
:10355000AAB900BF0008004880B5FDF7B5F9FFF72C
:10356000D3F9FEF711FFFEF7EFFEFEF783FFFEF73C
:10357000DFFF0A4804210022FDF795F9FEF74CFD14
:103580000020FEF791FC0020FEF7ACFD4FF6FF7027
:10359000FEF7C0FD00F004F8FCE700BF000C004897
:1035A00080B5FFF7CBFDFFF78DFD00F007F8FFF7C3
:1035B00081FEBDE88040FFF77BBF0000B0B5194D2C
:1035C000194C002205F138012046FDF797FF05F15F
:1035D0001A0120460022BDE8B040FDF75BBF00BFE6
:1035E00080B50F4900204FF000424860C1E9052036
:1035F000C861012081F820004FF4807048620948BA
:103600004289007B0A80887007480022FEF70EF886
:10361000002814BFBDE8804080BDFCF7F7BE00BFA6
:1036200080000020100000200C0100200FB4084B87
:1036300010B504A902AA039800F01CF8044602A9D8
:10364000002000F0B8F9204610BC5DF814FB000023
:10365000B739000802E008C8121F08C1002AFAD1D1
:1036600070477047002001E001C1121F002AFBD102
:10367000704700002DE9FF4F8BB0884605460026B5
:1036800006E025280BD0DDE90D1290476D1C761C55
:1036900028780028F5D10FB03046BDE8F08F00241F
:1036A000A146A2460122AE4900E0044315F8013FBD
:1036B000203B02FA03F00842F7D128782A2810D0DC
:1036C0006FF02F022878A0F13001092915D809EBF5
:1036D000890102EB410144F0020400EB01096D1C79
:1036E000F0E758F8041B5FEA010903D544F40054DD
:1036F000C9F1000944F002046D1C28782E2817D166
:1037000015F8010F44F004042A280ED06FF02F02A0
:103710002878A0F1300109290AD80AEB8A0102EBC6
:10372000410100EB010A6D1CF2E758F804AB6D1C77
:1037300028786C280FD006DC4C2817D068280DD0CC
:103740006A2814D104E0742810D07A280FD10DE033
:1037500044F400140AE044F4801401E044F44014FA
:103760006978814202D104F580146D1C6D1C2878A3
:10377000692865D006DC00288DD0632827D064280E
:1037800006D15DE06E2808D073282AD0752877D03E
:10379000DDE90D129047761CE0E0C4F302500228E8
:1037A00009D003280DD0D8F8001004280DD00E60E1
:1037B00008F10408D2E0D8F80010F217C1E900625D
:1037C000F6E7D8F800100E80F2E70E70F0E718F870
:1037D000041B8DF8001000208DF80100EB4601203D
:1037E00003E058F804BB4FF0FF3061074FF00007CB
:1037F00001D40AE07F1C57450DDA8742FADB1BF83B
:1038000007100029F6D106E07F1C8742FCDB1BF87D
:1038100007100029F8D1DDE90D23A9EB0700814647
:10382000214600F0B1F83044C61904E0DDE90D127C
:103830001BF8010B90477F1EF8D22146484688E0CE
:1038400058F8040BC4F302514FF00A0B032900D1BE
:1038500000B2042900D140B2002802DA40422D21F2
:1038600002E0210505D52B218DF82410012104E06B
:1038700006E0E10710D02021F6E708AF089113E039
:1038800058F8040BC4F302514FF00A0B032900D17E
:1038900080B2042900D1C0B20021EEE75946FCF7FE
:1038A0000CFD303107F8011D0028F7D1ADEB070002
:1038B00000F1200B600702D524F4803401E04FF0C2
:1038C000010ADA4502DDAAEB0B0000E00020824687
:1038D00000EB0B0108980144A9EB01000A90E003FA
:1038E00006D4DDE90D2321460A9800F04DF8064480
:1038F0004FF0000908E009A911F80900DDE90D12EF
:10390000904709F10109761C08998945F3DBE0032A
:103910000CD5DDE90D2321460A9800F035F8064460
:1039200004E0DDE90D1230209047761CBAF1000169
:10393000AAF1010AF5DC05E0DDE90D1217F8010B2B
:103940009047761CBBF10001ABF1010BF4DC0A9847
:103950002146DDE90D2300F005F806446D1C97E6CD
:10396000092801002DE9F041044600251E461746AE
:10397000880404D405E039462020B0476D1C641E3D
:10398000F9D52846BDE8F0812DE9F041044600252F
:103990001E469046C80301D5302700E02027880442
:1039A00004D505E041463846B0476D1C641EF9D584
:1039B0002846BDE8F0810A68531C0B601070704700
:1039C00000000000000000000102030406070809CF
:1039D00000000000010203040000000000000000DD
:1039E00000000000000000000000000000000000D7
:1039F00000000000000000000000000000000000C7
:103A00000000000000000000000080018001800133
:103A1000800180018001800180018001800180019E
:103A20008001800100000000800180010000000092
:103A3000000000000000000000000000CC00CC00EE
:103A4000CC00CC00CC00CC00000000000000000046
:103A50000000000000000000000000000000000066
:103A60000000000000000000000000000000000056
:103A700000000000600C600C600C30063006FE1F79
:103A8000FE1F300638071803FE1FFE1F1803180319
:103A90008C018C018C01000000008000E003F80F15
:103AA0009C0E8C1C8C188C009800F801E007800E8E
:103AB000801C8C188C189C18B80CF00FE003800048
:103AC00080000000000000000000000000000E1850
:103AD0001B0C110C11061106110311039B018E0121
:103AE000C038C06C60446044304430441844186CA2
:103AF0000C380000000000000000E001F00338076F
:103B0000180618063003F001F000F8009C310E335F
:103B1000061E061C061C063FFC73F0210000000078
:103B20000000000000000000000000000C000C007D
:103B30000C000C000C000C00000000000000000055
:103B40000000000000000000000000000000000075
:103B500000000000000000000000000200038001DF
:103B6000C000C00060006000300030003000300055
:103B7000300030003000300060006000C000C00045
:103B80008001000300020000000020006000C0006F
:103B90008001800100030003000600060006000605
:103BA00000060006000600060003000380018001F5
:103BB000C0006000200000000000000000000000C5
:103BC00000000000C000C000D806F807E001300384
:103BD00038070000000000000000000000000000A6
:103BE00000000000000000000000000000000000D5
:103BF0000000000080018001800180018001FC3F05
:103C0000FC3F8001800180018001800100000000F4
:103C100000000000000000000000000000000000A4
:103C20000000000000000000000000000000000094
:103C30000000000000000000000080018001000181
:103C400000018000000000000000000000000000F3
:103C50000000000000000000000000000000000064
:103C6000E007E00700000000000000000000000086
:103C70000000000000000000000000000000000044
:103C80000000000000000000000000000000000034
:103C900000000000000000000000C000C0000000A4
:103CA00000000000000000000000000C000C0006F6
:103CB000000600060003000300038003800180016A
:103CC0008001C000C000C000600060000000000073
:103CD00000000000000000000000E003F007380EC4
:103CE000180C0C180C180C180C180C180C180C18B4
:103CF0000C180C18180C380EF007E0030000000038
:103D00000000000000000000000000018001C00170
:103D1000F00198018801800180018001800180010B
:103D2000800180018001800180018001000000008D
:103D300000000000000000000000E003F80F180C75
:103D40000C180C1800180018000C00060003800165
:103D5000C000600030001800FC1FFC1F00000000C5
:103D600000000000000000000000E001F807180E4D
:103D70000C0C0C0C000C0006C003C007000C001853
:103D800000180C180C18180CF807E00300000000CD
:103D900000000000000000000000000C000E000FFA
:103DA000000F800DC00C600C600C300C180C0C0C5B
:103DB000FC3FFC3F000C000C000C000C000000005D
:103DC00000000000000000000000F80FF80F1800CD
:103DD00018000C00EC03FC071C0E001C0018001857
:103DE00000180C181C0C180EF807E0030000000067
:103DF00000000000000000000000C007F00F381CA9
:103E0000181818000C00CC03EC0F3C0E1C1C0C18EE
:103E10000C180C18181C380EF007E0030000000006
:103E200000000000000000000000FC1FFC1F000C50
:103E300000060006000380038001C001C000E0000E
:103E400060006000700030003000300000000000B2
:103E500000000000000000000000E003F007380E42
:103E6000180C180C180C3806F007F007180C0C1872
:103E70000C180C180C18380CF80FE00300000000A8
:103E800000000000000000000000E003F007380E12
:103E90001C0C0C180C180C181C1C381EF81BE019F4
:103EA0000018000C000C1C0EF807F00100000000C8
:103EB0000000000000000000000000000000000002
:103EC00000000000800180010000000000000000F0
:103ED00000000000000000008001800100000000E0
:103EE00000000000000000000000000000000000D2
:103EF00000000000800180010000000000000000C0
:103F000000000000000000008001800100010001AD
:103F10008000000000000000000000000000000021
:103F200000000000000000000010001C800FE003F3
:103F3000F8001800F800E003800F001C00100000DB
:103F40000000000000000000000000000000000071
:103F50000000000000000000F81F0000000000004A
:103F6000F81F00000000000000000000000000003A
:103F70000000000000000000000000000000000041
:103F8000000000000000000008003800F001C00739
:103F9000001F0018001FC007F001380008000000D3
:103FA00000000000000000000000E003F80F180C03
:103FB0000C180C180018000C000600038001C0004B
:103FC000C000C00000000000C000C00000000000F1
:103FD000000000000000000000000000E0071818CA
:103FE0000420C229224A11440944094409440922EF
:103FF0001113E20C024004201818E0070000000032
:104000000000000000000000000080038003C006E4
:10401000C006C006600C600C301830183018F83F2D
:10402000F83F1C700C600C6006C006C00000000069
:1040300000000000000000000000FC03FC0F0C0C5E
:104040000C180C180C180C0CFC07FC0F0C180C307E
:104050000C300C300C300C18FC1FFC07000000006A
:1040600000000000000000000000C007F01F38380A
:104070001C300C70066006000600060006000600F4
:10408000060006600C701C30F01FE0070000000006
:1040900000000000000000000000FE03FE0F060EFE
:1040A0000618061806300630063006300630063090
:1040B000063006180618060EFE0FFE03000000006C
:1040C00000000000000000000000FC3FFC3F0C006E
:1040D0000C000C000C000C00FC1FFC1F0C000C0062
:1040E0000C000C000C000C00FC3FFC3F000000002A
:1040F00000000000000000000000F83FF83F18003A
:104100001800180018001800F81FF81F18001800F1
:10411000180018001800180018001800000000000F
:1041200000000000000000000000E00FF83F3C78B5
:104130000E6006E007C00300030003FE03FE03C099
:1041400007C006C00EC03CF0F83FE00F00000000C2
:10415000000000000000000000000C300C300C30AB
:104160000C300C300C300C30FC3FFC3F0C300C3071
:104170000C300C300C300C300C300C3000000000D7
:1041800000000000000000000000800180018001AC
:104190008001800180018001800180018001800117
:1041A0008001800180018001800180010000000009
:1041B00000000000000000000000000600060006ED
:1041C00000060006000600060006000600060006BF
:1041D0000006180618063807F003E001000000008A
:1041E0000000000000000000000006300618060C69
:1041F000060606038601C60066007600DE008E0114
:1042000006030606060C06180630066000000000CD
:104210000000000000000000000018001800180056
:1042200018001800180018001800180018001800CE
:104230001800180018001800F81FF81F00000000F0
:10424000000000000000000000000EE01EF01EF064
:104250001EF036D836D836D836D866CC66CC66CC82
:10426000C6C6C6C6C6C6C6C686C386C3000000008C
:10427000000000000000000000000C301C303C304A
:104280003C306C306C30CC30CC308C310C330C3357
:104290000C360C360C3C0C3C0C380C30000000008A
:1042A00000000000000000000000E007F81F1C38BC
:1042B0000E70066003C003C003C003C003C003C088
:1042C00003C006600E701C38F81FE00700000000F5
:1042D00000000000000000000000FC0FFC1F0C3874
:1042E0000C300C300C300C300C18FC1FFC070C0090
:1042F0000C000C000C000C000C000C000000000076
:1043000000000000000000000000E007F81F1C385B
:104310000E70066003E003C003C003C003C003C007
:1043200007E006630E3F1C3CF83FE0F700C00000CA
:1043300000000000000000000000FE0FFE1F063815
:104340000630063006300638FE1FFE070603060656
:10435000060C06180618063006300660000000003D
:1043600000000000000000000000E003F80F1C0C3B
:104370000C180C180C001C00F803E00F001E00388D
:10438000063006300E301C1CF80FE007000000005D
:1043900000000000000000000000FE7FFE7F8001A2
:1043A0008001800180018001800180018001800105
:1043B00080018001800180018001800100000000F7
:1043C000000000000000000000000C300C300C3039
:1043D0000C300C300C300C300C300C300C300C30FD
:1043E0000C300C300C301818F81FE00700000000EB
:1043F00000000000000000000000036006300630EE
:1044000006300C180C180C18180C180C380E300646
:104410003006700760036003C001C00100000000A7
:10442000000000000000000000000360C361C361E1
:10443000C3616633663366336633663366336C1B3B
:104440006C1B6C1B2C1A3C1E380E380E0000000032
:10445000000000000000000000000FE00C701830A9
:104460003018700C600EC00780038003C003E006A4
:10447000700C301C18180C300E6007E000000000B3
:104480000000000000000000000003C006600C30C7
:104490001C383818300C6006E007C003800180012A
:1044A0008001800180018001800180010000000006
:1044B00000000000000000000000FC7FFC7F0060A6
:1044C00000300018000C000600038001C0006000EE
:1044D000300018000C000600FE7FFE7F0000000088
:1044E00000000000000000000000E003E0036000A6
:1044F00060006000600060006000600060006000BC
:1045000060006000600060006000600060006000AB
:104510006000E003E00300000000300030006000B5
:1045200060006000C000C000C000C00180018001C8
:1045300080010003000300030006000600000000E5
:1045400000000000000000000000E003E0030003A2
:104550000003000300030003000300030003000343
:104560000003000300030003000300030003000333
:104570000003E003E003000000000000C001C001F0
:1045800060036003600330063006180C180C00004E
:10459000000000000000000000000000000000001B
:1045A000000000000000000000000000000000000B
:1045B00000000000000000000000000000000000FB
:1045C00000000000000000000000FFFFFFFF0000EF
:1045D000000000000000000000000C000C000C00B7
:1045E0000C000C000C0000000000000000000000A7
:1045F00000000000000000000000000000000000BB
:1046000000000000000000000000000000000000AA
:1046100000000000F003F8071C0C0C0C000FF00F5A
:10462000F80C0C0C0C0C1C0FF80FF018000000001C
:104630000000000000000000000018001800180032
:1046400018001800D803F80F380C18181818181884
:10465000181818181818380CF80FD80300000000A4
:10466000000000000000000000000000000000004A
:1046700000000000C003F007300E180C18001800EE
:1046800018001800180C300EF007C00300000000DE
:1046900000000000000000000000001800180018D2
:1046A00000180018C01BF01F301C18181818181814
:1046B000181818181818301CF01FC01B0000000034
:1046C00000000000000000000000000000000000EA
:1046D00000000000C003F00F300C1818F81FF81F7E
:1046E000180018003818301CF00FC0070000000038
:1046F00000000000000000000000800FC00FC0009C
:10470000C000C000F007F007C000C000C000C0003B
:10471000C000C000C000C000C000C0000000000019
:104720000000000000000000000000000000000089
:1047300000000000E00DF80F180E0C0C0C0C0C0C17
:104740000C0C0C0C0C0C180EF80FE00D000C0C0CE3
:104750001C06F807F00100000000180018001800FF
:1047600018001800D807F80F381C1818181818184F
:104770001818181818181818181818180000000019
:1047800000000000000000000000C000C0000000A9
:1047900000000000C000C000C000C000C000C00099
:1047A000C000C000C000C000C000C0000000000089
:1047B00000000000000000000000C000C000000079
:1047C00000000000C000C000C000C000C000C00069
:1047D000C000C000C000C000C000C000C000C000D9
:1047E000C000F8007800000000000C000C000C0075
:1047F0000C000C000C0C0C060C038C01CC006C00A3
:10480000FC009C018C030C030C060C0C0000000047
:1048100000000000000000000000C000C000C00058
:10482000C000C000C000C000C000C000C000C00088
:10483000C000C000C000C000C000C00000000000F8
:104840000000000000000000000000000000000068
:10485000000000007C3CFF7EC7E383C183C183C1AD
:1048600083C183C183C183C183C183C100000000B0
:104870000000000000000000000000000000000038
:10488000000000009807F80F381C1818181818189E
:1048900018181818181818181818181800000000F8
:1048A0000000000000000000000000000000000008
:1048B00000000000C003F00F300C1818181818186A
:1048C000181818181818300CF00FC003000000005A
:1048D00000000000000000000000000000000000D8
:1048E00000000000D803F80F380C18181818181812
:1048F000181818181818380CF80FD80318001800D2
:10490000180018001800000000000000000000005F
:1049100000000000C01BF01F301C181818181818D1
:10492000181818181818301CF01FC01B0018001891
:10493000001800180018000000000000000000002F
:1049400000000000B007F0037000300030003000BD
:104950003000300030003000300030000000000037
:104960000000000000000000000000000000000047
:1049700000000000E003F003380E180C3800F003CC
:10498000C007000C180C380EF007E0030000000010
:104990000000000000000000000000008000C000D7
:1049A000C000C000F007F007C000C000C000C00099
:1049B000C000C000C000C000C007800700000000A9
:1049C00000000000000000000000000000000000E7
:1049D00000000000181818181818181818181818B7
:1049E000181818181818381CF01FE01900000000DB
:1049F00000000000000000000000000000000000B7
:104A0000000000000C18180C180C180C30063006AA
:104A10003006600360036003C001C00100000000B5
:104A20000000000000000000000000000000000086
:104A300000000000C141C141C361636363636363FC
:104A40003636363636361C1C1C1C1C1C000000007A
:104A50000000000000000000000000000000000056
:104A6000000000001C38381C300C60066003600336
:104A7000600360036006300C381C1C380000000026
:104A80000000000000000000000000000000000026
:104A9000000000001830301830187018600C600CDE
:104AA000E00CC006C0068003800380038001800103
:104AB000C001F000700000000000000000000000D5
:104AC00000000000FC1FFC1F000C0006000380011A
:104AD000C000600030001800FC1FFC1F0000000038
:104AE0000000000000000000000000038001C00082
:104AF000C000C000C000C000C00060006000300006
:104B000060004000C000C000C000C000C000C00085
:104B1000800100030000000000008001800180018E
:104B2000800180018001800180018001800180017D
:104B3000800180018001800180018001800180016D
:104B4000800180018001000000006000C000C00101
:104B500080018001800180018001000300030006C4
:104B6000000300018001800180018001800180013B
:104B7000C000600000000000000000000000000015
:104B80000000000000000000F010F81F080F0000F7
:104B90000000000000000000000000000000000015
:104BA00000000000000000000100020004000600F8
:104BB00008000A000C0010002000400080000001E6
:104BC00001010103070100000804020408010101BA
:104BD00020202020446174653A25642D25642D250C
:104BE00064202020202020202020202020202000A1
:104BF00020202020416C61726D3A25643A25643A88
:104C0000256420202020202020202020202000207B
:104C100020202054696D653A2532643A2532643A81
:104C20002532642020202020202020202020200049
:104C3000202020202020486F6D655061676520206E
:104C400020202020202020202020202020000000C4
:104C5000704C00080000002080000000543600085E
:104C6000F04C000880000020C87500006436000881
:104C70001000000001000000000000000000000023
:104C800000000000000000000000171E14000000DB
:104C90000000000000000000000000000000000014
:104CA0000000000000000000000000000000000004
:104CB00000000000000000000000000000000000F4
:104CC00000000000000000000000000000000000E4
:104CD00000000000000000000000000000000000D4
:104CE000FFFF00000024F4000000000000000000AE
:04000005080001D915
:00000001FF
